:100000000EC028C027C026C025C024C023C022C0DF
:1000100021C020C0A1C31EC01DC01CC01BC0112414
:100020001FBECFE5D2E0DEBFCDBF10E0A0E6B0E05E
:10003000E6E2FCE002C005900D92A436B107D9F7C4
:1000400020E0A4E6B0E001C01D92AE38B207E1F7AF
:1000500024D0E7C5D5CF8F929F92AF92BF92CF9217
:10006000DF92EF92FF924B015C012CD36B017C017C
:1000700029D3DC01CB018C199D09AE09BF09881673
:100080009906AA06BB06A0F7FF90EF90DF90CF90ED
:10009000BF90AF909F908F90089507D353D298D27E
:1000A00087B1836287B986B1836886B9369A3699F3
:1000B000FECF85B107D34B015C01C12CD12C760159
:1000C00020C0369A3699FECF65B170E080E090E0AE
:1000D0005ED42091600030916100409162005091A7
:1000E000630009D5A70196017FD320E030E040E707
:1000F00051E4E3D39B01AC01C701B60176D36B0198
:100100007C01E0D2DC01CB0188199909AA09BB095D
:1001100084369105A105B105A0F22AE037ED43E24E
:100120005CE3C701B601E3D418160CF0A3C02FEFAF
:100130004FEF6FEF83E045D215D268E873E180E0BE
:1001400090E089DFA12C912CC0E0412C512C612C36
:10015000712C812C212C312C20E040E060E083E0E8
:1001600030D200D268E873E180E090E074DFC23002
:10017000E9F028F4CC2341F0C13071F035C0C33030
:10018000F9F0C43041F130C020E040E06FEF83E08F
:1001900018D2A12C952C28C020E04FEF60E083E01E
:1001A00010D26894AA24A2F8962C1EC02FEF40E02B
:1001B00060E083E006D26894AA24A3F8942C14C0CB
:1001C0002FEF4FEF60E083E0FCD10F2EFCE0AF2E6D
:1001D000F02D912C09C020E04FEF6FEF83E0F1D1BB
:1001E0006894AA24A4F8912CBDD16CD26B017C0137
:1001F000D72D182D022DB32C26C0369A3699FECF56
:1002000065B170E080E090E0C2D320916000309151
:10021000610040916200509163006DD42D2F312F09
:10022000402F5B2DE1D220E030E040E751E445D3A0
:100230009B01AC016D2F712F802F9B2DD6D2D62F15
:10024000172F082FB92E3ED2DC01CB018C199D0946
:10025000AE09BF09883E9340A105B10570F24D2F4C
:10026000512F602F7B2D8A2D992DB5D4CF5FC530AE
:1002700009F072CF80E090E0A9D46093740070938D
:100280007500809376009093770084E090E09ED490
:10029000609370007093710080937200909373006C
:1002A00088E090E093D460936C0070936D0080932D
:1002B0006E0090936F008CE090E088D460936800AB
:1002C0007093690080936A0090936B0080E190E0E6
:1002D0007DD4609364007093650080936600909372
:1002E000670092D101E021E041E061E080E05AD175
:1002F00039D1E8D16B017C01212C312C0F2EF5E096
:10030000BF2EF02D00E010E0D22DC32D369A369985
:10031000FECF65B170E080E090E039D320916000BD
:10032000309161004091620050916300E4D39B01E1
:10033000AC01602F712F8D2F9C2F57D2062F172FB6
:10034000D82FC92FBA94B110E1CF20E030E040EAB5
:1003500050E4B3D24B015C014090740050907500A2
:1003600060907600709077002DEC3CEC4CEC5DE3F7
:10037000C301B20139D29B01AC01C501B401B7D3AD
:1003800088237CF02DEC3CEC4CEC5DE3C301B20126
:100390002CD29B01AC01C501B4018BD218160CF014
:1003A000C1C04090700050907100609072007090D9
:1003B00073002DEC3CEC4CEC5DE3C301B20114D2B4
:1003C0009B01AC01C501B40192D388237CF02DECD4
:1003D0003CEC4CEC5DE3C301B20107D29B01AC01E4
:1003E000C501B40166D218160CF080C040906C00B4
:1003F00050906D0060906E0070906F002DEC3CECA2
:100400004CEC5DE3C301B201EFD19B01AC01C5012E
:10041000B4016DD388237CF02DEC3CEC4CEC5DE317
:10042000C301B201E2D19B01AC01C501B40141D2CB
:1004300018160CF062C040906800509069006090FF
:100440006A0070906B002DEC3CEC4CEC5DE3C3015A
:10045000B201CAD19B01AC01C501B40148D38823C4
:100460007CF02DEC3CEC4CEC5DE3C301B201BDD162
:100470009B01AC01C501B4011CD218160CF044C09C
:100480004090640050906500609066007090670036
:100490002DEC3CEC4CEC5DE3C301B201A5D19B011A
:1004A000AC01C501B40123D3882374F02DEC3CECDE
:1004B0004CEC5DE3C301B20198D19B01AC01C501D5
:1004C000B401F7D118163CF5ADD0FCD0DC01CB015E
:1004D0008C199D09AE09BF09883E9340A105B1055D
:1004E00008F40CCFEFD06B017C0108CF20E04FEF78
:1004F00060E083E066D036D0E7CF2FEF40E060E0E9
:1005000083E05FD02FD0E0CF2FEF4FEF60E083E0AC
:1005100058D028D0D9CF20E04FEF6FEF83E051D0F3
:1005200021D0D2CF20E040E06FEF83E04AD01AD054
:10053000CBCF8FB9769A769903C0689A769BFDCF18
:100540008FB1089587B3866087BB8DB18F718DB9E8
:100550008DB18A618DB9ECE7F0E0108211821282D0
:1005600013820895CF93DF9380E0E3DF80E0E1DF43
:1005700080E0DFDF80E0DDDFCCE7D0E08881806EE7
:10058000D8DF8B81D6DF8A81D4DF8981D2DF80E01A
:10059000D0DF80E0CEDF80E0CCDF80E0CADFDF911B
:1005A000CF9108950F93E82FF0E0EE0FFF1FEE0FAD
:1005B000FF1FE458FF4F60834183228303830F9121
:1005C0000895ECE7F0E080836183428323830895FC
:1005D000BC9A80B7816080BF8CB580668CBD8FEF80
:1005E0008DBD1BBCB89AC09AE0E8F0E08AE0808339
:1005F00011821282138214824AE050E060E070E0BF
:1006000085E890E068D0089580918300811106C04C
:1006100081E08093830085E890E06DD0089585E8BF
:1006200090E0089585E890E0CED08823E9F18091AC
:100630008300882351F1809184008823C1F0809148
:10064000810081110FC080918200811105C0C09A84
:1006500081E08093820003C0C098109282001092C3
:1006600084000FC08150809381008BBD0AC0E0E8F8
:10067000F0E081819081891720F48F5F8093810061
:100680008BBD85E890E037D0089580918100882364
:1006900041F08150809381008BBD85E890E02BD0A4
:1006A000089585E890E032D008958AB582608ABDC9
:1006B00083B7826083BF8CE789BD89B7806189BFBA
:1006C00078940895609178007091790080917A0013
:1006D00090917B000895FC01408351836283738372
:1006E00081E0808781E090E0A0E0B0E084839583A2
:1006F000A683B7830895FC0180819181A281B38193
:1007000084839583A683B7831086089521E0FC0136
:10071000208741E050E060E070E0448355836683C9
:1007200077830895FC018085811115C084819581AE
:10073000A681B7810197A109B10984839583A68316
:10074000B78384819581A681B781892B8A2B8B2BD6
:1007500011F481E0808708951F920F920FB60F92D7
:1007600011242F933F934F935F936F937F938F93B6
:100770009F93AF93BF93EF93FF93809178009091F5
:100780007900A0917A00B0917B000196A11DB11D66
:100790008093780090937900A0937A00B0937B00C7
:1007A0003EDFC0DFFF91EF91BF91AF919F918F919D
:1007B0007F916F915F914F913F912F910F900FBE5D
:1007C0000F901F901895FC012085213059F4448129
:1007D00055816681778181E0452B462B472B19F0A7
:1007E00080E0089580E008955058BB27AA270ED0D6
:1007F00044C135D130F03AD120F031F49F3F11F4AB
:100800001EF42AC10EF4E095E7FB20C1E92F46D182
:1008100080F3BA17620773078407950718F071F41D
:100820009EF55EC10EF4E0950B2EBA2FA02D0B01A4
:10083000B90190010C01CA01A0011124FF27591B25
:1008400099F0593F50F4503E68F11A16F040A22F2B
:10085000232F342F4427585FF3CF4695379527959C
:10086000A795F0405395C9F77EF41F16BA0B620B9B
:10087000730B840BBAF09150A1F0FF0FBB1F661FE2
:10088000771F881FC2F70EC0BA0F621F731F841F25
:1008900048F4879577956795B795F7959E3F08F04B
:1008A000B3CF9395880F08F09927EE0F979587950A
:1008B0000895A8D008F481E008950CD0DEC0D6D009
:1008C00040F0CDD030F021F45F3F19F0BFC051119E
:1008D00008C1C2C0E3D098F39923C9F35523B1F3FB
:1008E000951B550BBB27AA2762177307840738F09F
:1008F0009F5F5F4F220F331F441FAA1FA9F333D0FE
:100900000E2E3AF0E0E830D091505040E695001CB1
:10091000CAF729D0FE2F27D0660F771F881FBB1F6D
:10092000261737074807AB07B0E809F0BB0B802D47
:10093000BF01FF2793585F4F2AF09E3F510568F093
:1009400085C0CFC05F3FECF3983EDCF3869577958A
:100950006795B795F7959F5FC9F7880F911D969595
:10096000879597F90895E1E0660F771F881FBB1FF1
:10097000621773078407BA0720F0621B730B840B9E
:10098000BA0BEE1F88F7E0950895E89409C097FB2D
:100990003EF490958095709561957F4F8F4F9F4F56
:1009A0009923A9F0F92F96E9BB279395F69587959A
:1009B00077956795B795F111F8CFFAF4BB0F11F45D
:1009C00060FF1BC06F5F7F4F8F4F9F4F16C0882304
:1009D00011F096E911C0772321F09EE8872F762F3A
:1009E00005C0662371F096E8862F70E060E02AF07B
:1009F0009A95660F771F881FDAF7880F9695879567
:100A000097F90895990F0008550FAA0BE0E8FEEF3B
:100A100016161706E807F907C0F012161306E407C2
:100A2000F50798F0621B730B840B950B39F40A26BB
:100A300061F0232B242B252B21F408950A2609F499
:100A4000A140A6958FEF811D811D089597F99F679D
:100A500080E870E060E008959FEF80EC0895002446
:100A60000A941616170618060906089500240A9413
:100A700012161306140605060895092E0394000C99
:100A800011F4882352F0BB0F40F4BF2B11F460FF28
:100A900004C06F5F7F4F8F4F9F4F089557FD905851
:100AA000440F551F59F05F3F71F04795880F97FB32
:100AB000991F61F09F3F79F08795089512161306EC
:100AC0001406551FF2CF4695F1DF08C0161617061B
:100AD0001806991FF1CF8695710561050894089550
:100AE000E894BB2766277727CB0197F908958ADF1B
:100AF00008F48FEF08950AD0C0CFB1DF28F0B6DF39
:100B000018F0952309F0A2CFA7CFEBCFC7DFA8F34A
:100B10009923D9F35523C9F3950F50E0551FAA2700
:100B2000EE27FF27BB2700240894679520F4E20FE7
:100B3000F31FB41F0A1E220F331F441FAA1F6695FE
:100B4000A9F7779530F4F30FB41F0A1E121E08F4AC
:100B50006395330F441FAA1F221F769599F7879537
:100B600020F4B40F0A1E121E631F440FAA1F221F77
:100B7000331F8695A9F7862F712D602D11249F575D
:100B800050408AF0E1F088234AF0EE0FFF1FBB1FB0
:100B9000661F771F881F91505040A9F79E3F51054F
:100BA00070F054CF9ECF5F3FECF3983EDCF3869518
:100BB00077956795B795F795E7959F5FC1F7FE2BFA
:100BC000880F911D9695879597F90895A6E1B0E055
:100BD00044E050E00AC0242F17D0252F15D000C0C4
:100BE00012D0272F11C0DC01CB01FC01E199FECF0F
:100BF00006C0FFBBEEBBE09A31960DB20D9241509C
:100C00005040B8F70895262FE199FECF1CBA9FBB3C
:100C10008EBB2DBB0FB6F894E29AE19A0FBE0196F7
:060C20000895F894FFCFD7
:040C260061FD9F3C91
:00000001FF
