:100000000EC028C027C026C025C024C023C022C0DF
:1000100021C020C030C41EC01DC01CC01BC0112484
:100020001FBECFE5D2E0DEBFCDBF10E0A0E6B0E05E
:10003000E4E4FDE002C005900D92A436B107D9F7C3
:1000400020E0A4E6B0E001C01D92AF38B207E1F7AE
:1000500024D076C6D5CF8F929F92AF92BF92CF9287
:10006000DF92EF92FF924B015C01BBD36B017C01ED
:10007000B8D3DC01CB018C199D09AE09BF098816E4
:100080009906AA06BB06A0F7FF90EF90DF90CF90ED
:10009000BF90AF909F908F90089596D3CFD20DD3FD
:1000A00087B1836287B986B1836886B9369A3699F3
:1000B000FECF85B196D34B015C01C12CD12C7601CA
:1000C00020C0369A3699FECF65B170E080E090E0AE
:1000D000EDD4209160003091610040916200509118
:1000E000630098D5A70196010ED420E030E040E7E8
:1000F00051E472D49B01AC01C701B60105D46B0178
:100100007C016FD3DC01CB0188199909AA09BB09CD
:1001100084369105A105B105A0F22AE037ED43E24E
:100120005CE3C701B60172D518160CF0AAC00FEF38
:100130002FEF4FEF63E080E0B1D290D268E873E137
:1001400080E090E088DFA12C912CC0E0412C512C64
:10015000612C712C812C212C312C00E020E040E01E
:1001600063E080E09BD27AD268E873E180E090E0BF
:1001700072DFC230F9F028F4CC2341F0C13079F0BD
:100180003AC0C33011F1C43061F135C000E020E065
:100190004FEF63E080E082D2A12C952C2CC000E0D0
:1001A0002FEF40E063E080E079D26894AA24A2F8BF
:1001B000962C21C00FEF20E040E063E080E06ED29B
:1001C0006894AA24A3F8942C16C00FEF2FEF40E0F8
:1001D00063E080E063D20F2EFCE0AF2EF02D912C77
:1001E0000AC000E02FEF4FEF63E080E057D2689441
:1001F000AA24A4F8912C32D2F4D26B017C01D72D21
:10020000182D022DB32C26C0369A3699FECF65B133
:1002100070E080E090E04AD420916000309161006D
:100220004091620050916300F5D42D2F312F402F63
:100230005B2D69D320E030E040E751E4CDD39B0152
:10024000AC016D2F712F802F9B2D5ED3D62F172FD2
:10025000082FB92EC6D2DC01CB018C199D09AE093D
:10026000BF09883E9340A105B10570F24D2F512F73
:10027000602F7B2D8A2D992D3DD5CF5FC53009F09C
:100280006CCF80E090E031D560937500709376007C
:10029000809377009093780084E090E026D5609377
:1002A000710070937200809373009093740088E0E3
:1002B00090E01BD560936D0070936E0080936F008B
:1002C000909370008CE090E010D56093690070937B
:1002D0006A0080936B0090936C0080E190E005D5FC
:1002E0006093650070936600809367009093680048
:1002F00000E020E04AE061E080E0D0D1AFD171D2EF
:100300006B017C01212C312C0F2EF5E0BF2EF02D3E
:1003100000E010E0D22DC32D369A3699FECF65B19C
:1003200070E080E090E0C2D32091600030916100E5
:1003300040916200509163006DD49B01AC01602F2D
:10034000712F8D2F9C2FE0D2062F172FD82FC92F5A
:10035000BA94B110E1CF20E030E040EA50E43CD361
:100360004B015C01409075005090760060907700E2
:10037000709078002DEC3CEC4CEC5DE3C301B201D5
:10038000C2D29B01AC01C501B40140D488237CF0EA
:100390002DEC3CEC4CEC5DE3C301B201B5D29B010A
:1003A000AC01C501B40114D318160CF039C140904A
:1003B00071005090720060907300709074002DEC8A
:1003C0003CEC4CEC5DE3C301B2019DD29B01AC015E
:1003D000C501B4011BD488237CF02DEC3CEC4CEC23
:1003E0005DE3C301B20190D29B01AC01C501B40130
:1003F000EFD218160CF0FFC040906D0050906E00C8
:1004000060906F00709070002DEC3CEC4CEC5DE364
:10041000C301B20178D29B01AC01C501B401F6D38E
:1004200088237CF02DEC3CEC4CEC5DE3C301B20185
:100430006BD29B01AC01C501B401CAD218160CF0F5
:10044000EAC04090690050906A0060906B00709024
:100450006C002DEC3CEC4CEC5DE3C301B20153D2DB
:100460009B01AC01C501B401D1D388237CF02DECF4
:100470003CEC4CEC5DE3C301B20146D29B01AC0104
:10048000C501B401A5D218160CF0BBC040906500A0
:100490005090660060906700709068002DEC3CEC16
:1004A0004CEC5DE3C301B2012ED29B01AC01C5014E
:1004B000B401ACD388230CF48CC02DEC3CEC4CEC98
:1004C0005DE3C301B20120D29B01AC01C501B401BF
:1004D0007FD218160CF09AC07CC01092640021D113
:1004E000882389F021D1882339F00AE020E040E018
:1004F00061E080E0D3D00DC000E02AE040E061E0A0
:1005000080E0CCD006C000E020E04AE061E080E07E
:10051000C5D0A4D05EC081E0809364000FEF2FEFC0
:100520004FEF63E080E0BAD099D053C000E02FEFE6
:1005300040E063E080E0B2D091D04BC0DAD0F4D09C
:10054000882349F0E7D000E02FEF40E061E080E051
:10055000A5D084D03EC0D8D000E020E04FEF61E0CD
:1005600080E09CD07BD035C00FEF20E040E063E01E
:1005700080E094D073D02DC0DED08B5FCFD029C067
:100580000FEF2FEF40E063E080E088D067D021C01C
:10059000B0D0CAD0811109C0BDD00FEF20E040E03B
:1005A00061E080E07BD05AD014C0AED000E020E003
:1005B0004FEF61E080E072D051D00BC000E02FEF30
:1005C0004FEF63E080E06AD049D003C0B4D08550DB
:1005D000A5D0B7D006D1DC01CB018C199D09AE099D
:1005E000BF09883E9340A105B10508F48DCEF9D02E
:1005F0006B017C0189CE80916400882309F49ECF31
:1006000095CF80916400882319F2BACF809164005D
:100610008823E1F2D3CF809164008111A5CFACCFC4
:1006200080916400811159CF76CF8FB9769A7699EF
:1006300003C0689A769BFDCF8FB1089587B386601B
:1006400087BB8DB18F718DB98DB18A618DB9EDE7A1
:10065000F0E010821182128213820895CF93DF930B
:1006600080E0E3DF80E0E1DF80E0DFDF80E0DDDF0E
:10067000CDE7D0E08881806ED8DF8B81D6DF8A819C
:10068000D4DF8981D2DF80E0D0DF80E0CEDF80E080
:10069000CCDF80E0CADFDF91CF9108950F93E82F80
:1006A000F0E0EE0FFF1FEE0FFF1FE358FF4F6083D8
:1006B0004183228303830F910895BC9A80B78160A0
:1006C00080BF8CB580668CBD8FEF8DBD1BBCB89A8A
:1006D000C09AE1E8F0E08AE08083118212821382FE
:1006E00014824AE050E060E070E086E890E082D05A
:1006F000089580918400811106C081E08093840078
:1007000086E890E087D0089580918400811110924E
:100710008400089581E0809385000895809381008E
:10072000089580918400089581E090918300911153
:1007300001C080E0089580918100089586E890E0EE
:10074000089586E890E0CED08823E9F18091840076
:10075000882351F1809185008823C1F08091820027
:1007600081110FC080918300811105C0C09A81E082
:100770008093830003C0C09810928300109285007C
:100780000FC08150809382008BBD0AC0E1E8F0E089
:1007900081819081891720F48F5F809382008BBDC7
:1007A00086E890E037D0089580918200882341F058
:1007B0008150809382008BBD86E890E02BD0089515
:1007C00086E890E032D008958AB582608ABD83B70A
:1007D000826083BF8CE789BD89B7806189BF7894C7
:1007E00008956091790070917A0080917B009091DA
:1007F0007C000895FC01408351836283738381E010
:10080000808781E090E0A0E0B0E084839583A683B8
:10081000B7830895FC0180819181A281B381848393
:100820009583A683B7831086089521E0FC01208775
:1008300041E050E060E070E0448355836683778355
:100840000895FC018085811115C084819581A68160
:10085000B7810197A109B10984839583A683B783E2
:1008600084819581A681B781892B8A2B8B2B11F4EA
:1008700081E0808708951F920F920FB60F92112486
:100880002F933F934F935F936F937F938F939F9398
:10089000AF93BF93EF93FF938091790090917A008B
:1008A000A0917B00B0917C000196A11DB11D8093A9
:1008B000790090937A00A0937B00B0937C003EDF98
:1008C000C0DFFF91EF91BF91AF919F918F917F9189
:1008D0006F915F914F913F912F910F900FBE0F90AD
:1008E0001F901895FC012085213059F444815581D1
:1008F0006681778181E0452B462B472B19F080E0FC
:10090000089580E008955058BB27AA270ED044C10F
:1009100035D130F03AD120F031F49F3F11F41EF47C
:100920002AC10EF4E095E7FB20C1E92F46D180F300
:10093000BA17620773078407950718F071F49EF5DC
:100940005EC10EF4E0950B2EBA2FA02D0B01B9015C
:1009500090010C01CA01A0011124FF27591B99F035
:10096000593F50F4503E68F11A16F040A22F232F41
:10097000342F4427585FF3CF469537952795A79591
:10098000F0405395C9F77EF41F16BA0B620B730B38
:10099000840BBAF09150A1F0FF0FBB1F661F771FA9
:1009A000881FC2F70EC0BA0F621F731F841F48F45E
:1009B000879577956795B795F7959E3F08F0B3CFE4
:1009C0009395880F08F09927EE0F979587950895CE
:1009D000A8D008F481E008950CD0DEC0D6D040F055
:1009E000CDD030F021F45F3F19F0BFC0511108C1E4
:1009F000C2C0E3D098F39923C9F35523B1F3951BF3
:100A0000550BBB27AA2762177307840738F09F5F2F
:100A10005F4F220F331F441FAA1FA9F333D00E2E9E
:100A20003AF0E0E830D091505040E695001CCAF70B
:100A300029D0FE2F27D0660F771F881FBB1F2617D0
:100A400037074807AB07B0E809F0BB0B802DBF01A3
:100A5000FF2793585F4F2AF09E3F510568F085C0ED
:100A6000CFC05F3FECF3983EDCF3869577956795B2
:100A7000B795F7959F5FC9F7880F911D9695879554
:100A800097F90895E1E0660F771F881FBB1F621773
:100A900073078407BA0720F0621B730B840BBA0B31
:100AA000EE1F88F7E0950895E89409C097FB3EF49F
:100AB00090958095709561957F4F8F4F9F4F9923AB
:100AC000A9F0F92F96E9BB279395F6958795779529
:100AD0006795B795F111F8CFFAF4BB0F11F460FFE9
:100AE0001BC06F5F7F4F8F4F9F4F16C0882311F041
:100AF00096E911C0772321F09EE8872F762F05C055
:100B0000662371F096E8862F70E060E02AF09A95EF
:100B1000660F771F881FDAF7880F9695879597F9E4
:100B20000895990F0008550FAA0BE0E8FEEF16167E
:100B30001706E807F907C0F012161306E407F507D1
:100B400098F0621B730B840B950B39F40A2661F045
:100B5000232B242B252B21F408950A2609F4A140E8
:100B6000A6958FEF811D811D089597F99F6780E8F5
:100B700070E060E008959FEF80EC089500240A94EF
:100B80001616170618060906089500240A94121668
:100B90001306140605060895092E0394000C11F49B
:100BA000882352F0BB0F40F4BF2B11F460FF04C048
:100BB0006F5F7F4F8F4F9F4F089557FD9058440FA1
:100BC000551F59F05F3F71F04795880F97FB991FAC
:100BD00061F09F3F79F08795089512161306140669
:100BE000551FF2CF4695F1DF08C0161617061806F6
:100BF000991FF1CF86957105610508940895E894D1
:100C0000BB2766277727CB0197F908958ADF08F479
:100C10008FEF08950AD0C0CFB1DF28F0B6DF18F00B
:100C2000952309F0A2CFA7CFEBCFC7DFA8F3992375
:100C3000D9F35523C9F3950F50E0551FAA27EE2786
:100C4000FF27BB2700240894679520F4E20FF31FC9
:100C5000B41F0A1E220F331F441FAA1F6695A9F74F
:100C6000779530F4F30FB41F0A1E121E08F4639533
:100C7000330F441FAA1F221F769599F7879520F4FA
:100C8000B40F0A1E121E631F440FAA1F221F331F18
:100C90008695A9F7862F712D602D11249F575040FE
:100CA0008AF0E1F088234AF0EE0FFF1FBB1F661F9A
:100CB000771F881F91505040A9F79E3F510570F053
:100CC00054CF9ECF5F3FECF3983EDCF3869577954B
:100CD0006795B795F795E7959F5FC1F7FE2B880F4E
:100CE000911D9695879597F90895A6E1B0E044E0A7
:100CF00050E00AC0242F17D0252F15D000C012D0E5
:100D0000272F11C0DC01CB01FC01E199FECF06C009
:100D1000FFBBEEBBE09A31960DB20D9241505040B0
:100D2000B8F70895262FE199FECF1CBA9FBB8EBB62
:100D30002DBB0FB6F894E29AE19A0FBE0196089582
:040D4000F894FFCF55
:040D440061FD9F3C72
:00000001FF
